:020000040800F2
:1000000000200020C1000008C7000008C700000849
:1000100000000000000000000000000000000000E0
:10002000000000000000000000000000C700000801
:100030000000000000000000C7000008C700000822
:10004000C7000008C7000008C7000008C700000874
:10005000C7000008C7000008C7000008C700000864
:10006000C7000008C7000008C7000008C700000854
:10007000C7000008C9000008C7000008C700000842
:10008000C7000008C7000008C7000008C700000834
:10009000C7000008C7000008C7000008C700000824
:1000A000C7000008C7000008C7000008C700000814
:1000B000C7000008C7000008C7000008C700000804
:1000C00000F09CF8FEE7FEE780B500AF144B144A41
:1000D000126801218A431A60124B1B685A1C114B8B
:1000E0001A60104B1B68002B17DD0E4B00221A60A4
:1000F0000D4B1B68002B02D100F072F80DE00A4B8B
:100100001B68002B09D0084B1B685A1E064B1A604F
:10011000064B1B68054B00221A60C046BD4680BDD9
:10012000102C0140000000200400002014000048B2
:1001300080B582B000AF7860C0467B685A1E7A6096
:10014000002BFAD1C046BD4602B080BD80B500AFDD
:100150001C4B1C4A1268802189020A431A609023B2
:10016000DB059022D205126801210A431A60164B62
:10017000154A12681A60154B144A12688021090149
:100180000A431A60124BFA221A60124B114A126883
:10019000802189010A431A600F4B0F4A126810210F
:1001A0000A431A600C4B0C4A126801210A431A6078
:1001B0000A4B0A4A126801210A431A6062B6C04615
:1001C000BD4680BD141002400004004818100240D3
:1001D0002C2C014000E100E0002C01400C2C0140DF
:1001E00080B500AF044B044A126801214A401A60EE
:1001F000C046BD4680BDC0461400004880B582B0F0
:1002000000AFA0239B007B60FFF7A0FF594B1B684A
:100210000222134011D0584B1800FFF789FF554BAD
:100220001B680222134008D0C046524B1B680222B2
:100230001340FAD1514B7A681A604E4B1B68042266
:10024000134012D04C4B1800FFF772FF494B1B684C
:100250000422134009D0C046464B1B6804221340B9
:10026000FAD17B685A00454B1A60424B1B68082242
:10027000134014D0404B1800FFF75AFF3D4B1B684A
:10028000082213400BD0C0463A4B1B68082213408B
:10029000FAD17A6813009B009A18384B1A60354BD4
:1002A0001B681022134016D0334B1800FFF740FF95
:1002B000304B1B68102213400DD0C0462D4B1B68DD
:1002C00010221340FAD17A6813005B009B185B0080
:1002D0001A002A4B1A60274B1B682022134014D0A7
:1002E000254B1800FFF724FF224B1B6820221340E8
:1002F0000BD0C0461F4B1B6820221340FAD17A68EE
:1003000013005B009A181D4B1A601A4B1B684022A1
:10031000134014D0184B1800FFF70AFF154B1B6849
:10032000402213400BD0C046124B1B6840221340A2
:10033000FAD17A681300DB009A1A104B1A600D4B41
:100340001B688022134000D160E70B4B1800FFF7B9
:10035000EFFE084B1B688022134000D156E7C046D1
:10036000044B1B6880221340FAD17B689A00034B30
:100370001A604BE71000004810270000040000201E
:0400000508000000EF
:00000001FF
