:020000040800F2
:1000000000200020C1000008C7000008C700000849
:1000100000000000000000000000000000000000E0
:10002000000000000000000000000000C700000801
:100030000000000000000000C7000008C700000822
:10004000C7000008C7000008C7000008C700000874
:10005000C7000008C7000008C7000008C700000864
:10006000C7000008C7000008C7000008C700000854
:10007000C7000008C9000008C7000008C700000842
:10008000C7000008C7000008C7000008C700000834
:10009000C7000008C7000008C7000008C700000824
:1000A000C7000008C7000008C7000008C700000814
:1000B000C7000008C7000008C7000008C700000804
:1000C00000F088F8FEE7FEE780B500AF124B124A59
:1000D000126801218A431A60104B1B685A1C0F4B8F
:1000E0001A600E4B1B680A2B12DD0C4B00221A60A3
:1000F0000B4B1B68002B02D100F05EF808E0084BA8
:100100001B68002B04D0064B1B685A1E044B1A6058
:10011000C046BD4680BDC046102C014000000020F6
:100120000400002080B500AF1C4B1C4A12688021DF
:1001300089020A431A609023DB059022D2051268D7
:1001400001210A431A60164B154A12681A60154BB2
:10015000144A1268802109010A431A60124B0822CE
:100160001A60124B114A1268802189010A431A60F1
:100170000F4B0F4A126810210A431A600C4B0C4AAD
:10018000126801210A431A600A4B0A4A12680121C7
:100190000A431A6062B6C046BD4680BD14100240D4
:1001A00000040048181002402C2C014000E100E03F
:1001B000002C01400C2C014080B500AF044B044AD8
:1001C000126801214A401A60C046BD4680BDC04643
:1001D0001400004880B582B000AF00237B60FFF7B9
:1001E000A1FF3C4B1B68022213401DD0C046394B77
:1001F0001B6802221340FAD17B68002B01D1012336
:100200007B607B68012B01D100237B607B68002B26
:1002100002D0012B04D007E02F4B01221A6003E02B
:100220002D4B08221A60C0462A4B1B68042213403B
:1002300008D0C046274B1B6804221340FAD1264B36
:1002400002221A60234B1B680822134008D0C046C4
:10025000204B1B6808221340FAD11F4B05221A605D
:100260001C4B1B681022134008D0C046194B1B685A
:1002700010221340FAD1184B06221A60154B1B6846
:100280002022134008D0C046124B1B682022134086
:10029000FAD1114B03221A600E4B1B684022134007
:1002A00008D0C0460B4B1B6840221340FAD10A4BC2
:1002B00007221A60074B1B688022134091D0C0466A
:1002C000044B1B6880221340FAD1034B04221A60AE
:0C02D00087E7C046100000480400002032
:0400000508000000EF
:00000001FF
